{
  "_format": "hh-sol-artifact-1",
  "contractName": "Lock",
  "sourceName": "contracts/Lock.sol",
  "abi": [
    {
      "inputs": [
        {
          "internalType": "address",
          "name": "_buyer",
          "type": "address"
        },
        {
          "internalType": "address",
          "name": "_seller",
          "type": "address"
        },
        {
          "internalType": "address",
          "name": "_courier",
          "type": "address"
        },
        {
          "internalType": "uint256",
          "name": "_amount",
          "type": "uint256"
        }
      ],
      "stateMutability": "nonpayable",
      "type": "constructor"
    },
    {
      "inputs": [],
      "name": "acceptOrder",
      "outputs": [],
      "stateMutability": "nonpayable",
      "type": "function"
    },
    {
      "inputs": [],
      "name": "amount",
      "outputs": [
        {
          "internalType": "uint256",
          "name": "",
          "type": "uint256"
        }
      ],
      "stateMutability": "view",
      "type": "function"
    },
    {
      "inputs": [],
      "name": "buyer",
      "outputs": [
        {
          "internalType": "address",
          "name": "",
          "type": "address"
        }
      ],
      "stateMutability": "view",
      "type": "function"
    },
    {
      "inputs": [],
      "name": "confirmDelivery",
      "outputs": [],
      "stateMutability": "nonpayable",
      "type": "function"
    },
    {
      "inputs": [],
      "name": "courier",
      "outputs": [
        {
          "internalType": "address",
          "name": "",
          "type": "address"
        }
      ],
      "stateMutability": "view",
      "type": "function"
    },
    {
      "inputs": [],
      "name": "deposit",
      "outputs": [],
      "stateMutability": "payable",
      "type": "function"
    },
    {
      "inputs": [],
      "name": "isDelivered",
      "outputs": [
        {
          "internalType": "bool",
          "name": "",
          "type": "bool"
        }
      ],
      "stateMutability": "view",
      "type": "function"
    },
    {
      "inputs": [],
      "name": "isPaid",
      "outputs": [
        {
          "internalType": "bool",
          "name": "",
          "type": "bool"
        }
      ],
      "stateMutability": "view",
      "type": "function"
    },
    {
      "inputs": [],
      "name": "isShipped",
      "outputs": [
        {
          "internalType": "bool",
          "name": "",
          "type": "bool"
        }
      ],
      "stateMutability": "view",
      "type": "function"
    },
    {
      "inputs": [],
      "name": "orderStatus",
      "outputs": [
        {
          "internalType": "string",
          "name": "",
          "type": "string"
        }
      ],
      "stateMutability": "view",
      "type": "function"
    },
    {
      "inputs": [],
      "name": "seller",
      "outputs": [
        {
          "internalType": "address",
          "name": "",
          "type": "address"
        }
      ],
      "stateMutability": "view",
      "type": "function"
    },
    {
      "inputs": [],
      "name": "ship",
      "outputs": [],
      "stateMutability": "nonpayable",
      "type": "function"
    },
    {
      "inputs": [],
      "name": "state",
      "outputs": [
        {
          "internalType": "enum Lock.State",
          "name": "",
          "type": "uint8"
        }
      ],
      "stateMutability": "view",
      "type": "function"
    }
  ],
  "bytecode": "0x608060405234801561001057600080fd5b5060405161111338038061111383398181016040528101906100329190610219565b836000806101000a81548173ffffffffffffffffffffffffffffffffffffffff021916908373ffffffffffffffffffffffffffffffffffffffff16021790555082600160006101000a81548173ffffffffffffffffffffffffffffffffffffffff021916908373ffffffffffffffffffffffffffffffffffffffff16021790555081600260006101000a81548173ffffffffffffffffffffffffffffffffffffffff021916908373ffffffffffffffffffffffffffffffffffffffff160217905550806003819055506000600460036101000a81548160ff0219169083600481111561012157610120610280565b5b02179055506000600460006101000a81548160ff0219169083151502179055506000600460016101000a81548160ff0219169083151502179055506000600460026101000a81548160ff021916908315150217905550505050506102af565b600080fd5b600073ffffffffffffffffffffffffffffffffffffffff82169050919050565b60006101b082610185565b9050919050565b6101c0816101a5565b81146101cb57600080fd5b50565b6000815190506101dd816101b7565b92915050565b6000819050919050565b6101f6816101e3565b811461020157600080fd5b50565b600081519050610213816101ed565b92915050565b6000806000806080858703121561023357610232610180565b5b6000610241878288016101ce565b9450506020610252878288016101ce565b9350506040610263878288016101ce565b925050606061027487828801610204565b91505092959194509250565b7f4e487b7100000000000000000000000000000000000000000000000000000000600052602160045260246000fd5b610e55806102be6000396000f3fe6080604052600436106100c25760003560e01c80637150d8ae1161007f578063b6bef7b311610059578063b6bef7b314610222578063c19d93fb14610239578063d0e30db014610264578063f291ae081461026e576100c2565b80637150d8ae146101a1578063765f744c146101cc578063aa8c217c146101f7576100c2565b806308551a53146100c757806313fc80d3146100f2578063209ebc08146101095780632728e28b1461013457806350a7f7d31461015f5780635e10177b1461018a575b600080fd5b3480156100d357600080fd5b506100dc610299565b6040516100e99190610a3a565b60405180910390f35b3480156100fe57600080fd5b506101076102bf565b005b34801561011557600080fd5b5061011e61041d565b60405161012b9190610a70565b60405180910390f35b34801561014057600080fd5b50610149610430565b6040516101569190610b1b565b60405180910390f35b34801561016b57600080fd5b5061017461064e565b6040516101819190610a3a565b60405180910390f35b34801561019657600080fd5b5061019f610674565b005b3480156101ad57600080fd5b506101b6610783565b6040516101c39190610a3a565b60405180910390f35b3480156101d857600080fd5b506101e16107a7565b6040516101ee9190610a70565b60405180910390f35b34801561020357600080fd5b5061020c6107ba565b6040516102199190610b56565b60405180910390f35b34801561022e57600080fd5b506102376107c0565b005b34801561024557600080fd5b5061024e6108cf565b60405161025b9190610be8565b60405180910390f35b61026c6108e2565b005b34801561027a57600080fd5b506102836109e6565b6040516102909190610a70565b60405180910390f35b600160009054906101000a900473ffffffffffffffffffffffffffffffffffffffff1681565b60038060048111156102d4576102d3610b71565b5b600460039054906101000a900460ff1660048111156102f6576102f5610b71565b5b14610336576040517f08c379a000000000000000000000000000000000000000000000000000000000815260040161032d90610c4f565b60405180910390fd5b600460029054906101000a900460ff16610385576040517f08c379a000000000000000000000000000000000000000000000000000000000815260040161037c90610cbb565b60405180910390fd5b600160009054906101000a900473ffffffffffffffffffffffffffffffffffffffff1673ffffffffffffffffffffffffffffffffffffffff166108fc6003549081150290604051600060405180830381858888f193505050501580156103ef573d6000803e3d6000fd5b5060048060036101000a81548160ff0219169083600481111561041557610414610b71565b5b021790555050565b600460009054906101000a900460ff1681565b60606000600481111561044657610445610b71565b5b600460039054906101000a900460ff16600481111561046857610467610b71565b5b036104aa576040518060400160405280601081526020017f4177616974696e67207061796d656e7400000000000000000000000000000000815250905061064b565b600160048111156104be576104bd610b71565b5b600460039054906101000a900460ff1660048111156104e0576104df610b71565b5b03610522576040518060400160405280601181526020017f4177616974696e6720736869706d656e74000000000000000000000000000000815250905061064b565b6002600481111561053657610535610b71565b5b600460039054906101000a900460ff16600481111561055857610557610b71565b5b0361059a576040518060400160405280600a81526020017f496e207472616e73697400000000000000000000000000000000000000000000815250905061064b565b600360048111156105ae576105ad610b71565b5b600460039054906101000a900460ff1660048111156105d0576105cf610b71565b5b03610612576040518060400160405280600981526020017f44656c6976657265640000000000000000000000000000000000000000000000815250905061064b565b6040518060400160405280600981526020017f436f6d706c65746564000000000000000000000000000000000000000000000081525090505b90565b600260009054906101000a900473ffffffffffffffffffffffffffffffffffffffff1681565b600280600481111561068957610688610b71565b5b600460039054906101000a900460ff1660048111156106ab576106aa610b71565b5b146106eb576040517f08c379a00000000000000000000000000000000000000000000000000000000081526004016106e290610c4f565b60405180910390fd5b600460019054906101000a900460ff1661073a576040517f08c379a000000000000000000000000000000000000000000000000000000000815260040161073190610d27565b60405180910390fd5b6001600460026101000a81548160ff0219169083151502179055506003600460036101000a81548160ff0219169083600481111561077b5761077a610b71565b5b021790555050565b60008054906101000a900473ffffffffffffffffffffffffffffffffffffffff1681565b600460029054906101000a900460ff1681565b60035481565b60018060048111156107d5576107d4610b71565b5b600460039054906101000a900460ff1660048111156107f7576107f6610b71565b5b14610837576040517f08c379a000000000000000000000000000000000000000000000000000000000815260040161082e90610c4f565b60405180910390fd5b600460009054906101000a900460ff16610886576040517f08c379a000000000000000000000000000000000000000000000000000000000815260040161087d90610d93565b60405180910390fd5b6001600460016101000a81548160ff0219169083151502179055506002600460036101000a81548160ff021916908360048111156108c7576108c6610b71565b5b021790555050565b600460039054906101000a900460ff1681565b60008060048111156108f7576108f6610b71565b5b600460039054906101000a900460ff16600481111561091957610918610b71565b5b14610959576040517f08c379a000000000000000000000000000000000000000000000000000000000815260040161095090610c4f565b60405180910390fd5b600354341461099d576040517f08c379a000000000000000000000000000000000000000000000000000000000815260040161099490610dff565b60405180910390fd5b6001600460006101000a81548160ff0219169083151502179055506001600460036101000a81548160ff021916908360048111156109de576109dd610b71565b5b021790555050565b600460019054906101000a900460ff1681565b600073ffffffffffffffffffffffffffffffffffffffff82169050919050565b6000610a24826109f9565b9050919050565b610a3481610a19565b82525050565b6000602082019050610a4f6000830184610a2b565b92915050565b60008115159050919050565b610a6a81610a55565b82525050565b6000602082019050610a856000830184610a61565b92915050565b600081519050919050565b600082825260208201905092915050565b60005b83811015610ac5578082015181840152602081019050610aaa565b60008484015250505050565b6000601f19601f8301169050919050565b6000610aed82610a8b565b610af78185610a96565b9350610b07818560208601610aa7565b610b1081610ad1565b840191505092915050565b60006020820190508181036000830152610b358184610ae2565b905092915050565b6000819050919050565b610b5081610b3d565b82525050565b6000602082019050610b6b6000830184610b47565b92915050565b7f4e487b7100000000000000000000000000000000000000000000000000000000600052602160045260246000fd5b60058110610bb157610bb0610b71565b5b50565b6000819050610bc282610ba0565b919050565b6000610bd282610bb4565b9050919050565b610be281610bc7565b82525050565b6000602082019050610bfd6000830184610bd9565b92915050565b7f496e76616c696420737461746500000000000000000000000000000000000000600082015250565b6000610c39600d83610a96565b9150610c4482610c03565b602082019050919050565b60006020820190508181036000830152610c6881610c2c565b9050919050565b7f4f72646572206e6f742064656c69766572656420796574000000000000000000600082015250565b6000610ca5601783610a96565b9150610cb082610c6f565b602082019050919050565b60006020820190508181036000830152610cd481610c98565b9050919050565b7f4f72646572206e6f742073686970706564207965740000000000000000000000600082015250565b6000610d11601583610a96565b9150610d1c82610cdb565b602082019050919050565b60006020820190508181036000830152610d4081610d04565b9050919050565b7f5061796d656e74206e6f74207265636569766564207965740000000000000000600082015250565b6000610d7d601883610a96565b9150610d8882610d47565b602082019050919050565b60006020820190508181036000830152610dac81610d70565b9050919050565b7f496e636f727265637420616d6f756e7400000000000000000000000000000000600082015250565b6000610de9601083610a96565b9150610df482610db3565b602082019050919050565b60006020820190508181036000830152610e1881610ddc565b905091905056fea2646970667358221220d7938d0aa9f88c559a538f6d18918abfa280854f8dc33c4021019d02f53b106564736f6c634300081c0033",
  "linkReferences": {},
  "deployedLinkReferences": {}
}